S01000004C617365725461672E7372656301
S11300000C9434000C943E000C943E000C943E007E
S11300100C943E000C943E000C943E000C943E0064
S11300200C943E000C943E000C943E000C943E0054
S11300300C943E000C943E000C943E000C943E0044
S11300400C943E000C943E000C943E000C943E0034
S11300500C943E000C943E000C943E000C943E0024
S11300600C943E000C943E0011241FBECFEFD8E048
S1130070DEBFCDBF0E94AD000C94C5000C940000FF
S1130080289880E48A95F1F70895289A80E48A955F
S1130090F1F70895CF93DF93EC011816190644F491
S11300A00E9445000E94400068971C161D06C4F378
S11300B02898DF91CF91089588EE93E00E944A003A
S11300C08FEC97E00197F1F700C0000088EE93E011
S11300D00E944A008FEC97E00197F1F700C00000FE
S11300E08CED95E00E944A008FEC97E00197F1F7C0
S11300F000C0000088EE93E00E944A008FEC97E075
S11301000197F1F700C000008CED95E00E944A00D1
S11301108FEC97E00197F1F700C0000088EE93E0C0
S11301200E944A008FEC97E00197F1F700C00000AD
S11301308CED95E00E944A008FEC97E00197F1F76F
S113014000C0000088EE93E00E944A008FEC97E024
S11301500197F1F700C00000089583E084B917B84F
S113016015B881E088B9309BFECF0E945C000E94E4
S11301705C000E945C002FEF81EE94E021508040EF
S11101809040E1F700C00000EECFF894FFCFEE
S9030000FC
